{
  "_format": "hh-sol-artifact-1",
  "contractName": "PriceFetcher",
  "sourceName": "contracts/PriceFetcher.sol",
  "abi": [
    {
      "inputs": [
        {
          "internalType": "address",
          "name": "_btcFeed",
          "type": "address"
        },
        {
          "internalType": "address",
          "name": "_ethFeed",
          "type": "address"
        }
      ],
      "stateMutability": "nonpayable",
      "type": "constructor"
    },
    {
      "inputs": [],
      "name": "getBTCPrice",
      "outputs": [
        {
          "internalType": "int256",
          "name": "",
          "type": "int256"
        }
      ],
      "stateMutability": "view",
      "type": "function"
    },
    {
      "inputs": [],
      "name": "getETHPrice",
      "outputs": [
        {
          "internalType": "int256",
          "name": "",
          "type": "int256"
        }
      ],
      "stateMutability": "view",
      "type": "function"
    }
  ],
  "bytecode": "0x608060405234801561001057600080fd5b506040516106203803806106208339818101604052810190610032919061011d565b816000806101000a81548173ffffffffffffffffffffffffffffffffffffffff021916908373ffffffffffffffffffffffffffffffffffffffff16021790555080600160006101000a81548173ffffffffffffffffffffffffffffffffffffffff021916908373ffffffffffffffffffffffffffffffffffffffff160217905550505061015d565b600080fd5b600073ffffffffffffffffffffffffffffffffffffffff82169050919050565b60006100ea826100bf565b9050919050565b6100fa816100df565b811461010557600080fd5b50565b600081519050610117816100f1565b92915050565b60008060408385031215610134576101336100ba565b5b600061014285828601610108565b925050602061015385828601610108565b9150509250929050565b6104b48061016c6000396000f3fe608060405234801561001057600080fd5b50600436106100365760003560e01c8063a607a8d91461003b578063dd22db8014610059575b600080fd5b610043610077565b6040516100509190610256565b60405180910390f35b61006161015b565b60405161006e9190610256565b60405180910390f35b600080600160009054906101000a900473ffffffffffffffffffffffffffffffffffffffff1673ffffffffffffffffffffffffffffffffffffffff1663feaf968c6040518163ffffffff1660e01b815260040160a060405180830381865afa1580156100e7573d6000803e3d6000fd5b505050506040513d601f19601f8201168201806040525081019061010b919061031a565b50505091505060008113610154576040517f08c379a000000000000000000000000000000000000000000000000000000000815260040161014b906103f2565b60405180910390fd5b8091505090565b60008060008054906101000a900473ffffffffffffffffffffffffffffffffffffffff1673ffffffffffffffffffffffffffffffffffffffff1663feaf968c6040518163ffffffff1660e01b815260040160a060405180830381865afa1580156101c9573d6000803e3d6000fd5b505050506040513d601f19601f820116820180604052508101906101ed919061031a565b50505091505060008113610236576040517f08c379a000000000000000000000000000000000000000000000000000000000815260040161022d9061045e565b60405180910390fd5b8091505090565b6000819050919050565b6102508161023d565b82525050565b600060208201905061026b6000830184610247565b92915050565b600080fd5b600069ffffffffffffffffffff82169050919050565b61029581610276565b81146102a057600080fd5b50565b6000815190506102b28161028c565b92915050565b6102c18161023d565b81146102cc57600080fd5b50565b6000815190506102de816102b8565b92915050565b6000819050919050565b6102f7816102e4565b811461030257600080fd5b50565b600081519050610314816102ee565b92915050565b600080600080600060a0868803121561033657610335610271565b5b6000610344888289016102a3565b9550506020610355888289016102cf565b945050604061036688828901610305565b935050606061037788828901610305565b9250506080610388888289016102a3565b9150509295509295909350565b600082825260208201905092915050565b7f496e76616c696420455448207072696365000000000000000000000000000000600082015250565b60006103dc601183610395565b91506103e7826103a6565b602082019050919050565b6000602082019050818103600083015261040b816103cf565b9050919050565b7f496e76616c696420425443207072696365000000000000000000000000000000600082015250565b6000610448601183610395565b915061045382610412565b602082019050919050565b600060208201905081810360008301526104778161043b565b905091905056fea26469706673582212209d8860dba56ec4e162347da7472011277659185623a33c900469e19be5b6676364736f6c634300081c0033",
  "linkReferences": {},
  "deployedLinkReferences": {}
}